{
  "contractName": "Courses",
  "abi": [
    {
      "inputs": [],
      "payable": false,
      "stateMutability": "nonpayable",
      "type": "constructor"
    },
    {
      "constant": true,
      "inputs": [
        {
          "internalType": "uint256",
          "name": "",
          "type": "uint256"
        }
      ],
      "name": "instructorAccts",
      "outputs": [
        {
          "internalType": "address",
          "name": "",
          "type": "address"
        }
      ],
      "payable": false,
      "stateMutability": "view",
      "type": "function"
    },
    {
      "constant": false,
      "inputs": [
        {
          "internalType": "address",
          "name": "_address",
          "type": "address"
        },
        {
          "internalType": "uint256",
          "name": "_age",
          "type": "uint256"
        },
        {
          "internalType": "string",
          "name": "_fName",
          "type": "string"
        },
        {
          "internalType": "string",
          "name": "_lName",
          "type": "string"
        }
      ],
      "name": "setInstructor",
      "outputs": [],
      "payable": false,
      "stateMutability": "nonpayable",
      "type": "function"
    },
    {
      "constant": true,
      "inputs": [],
      "name": "getInstructors",
      "outputs": [
        {
          "internalType": "address[]",
          "name": "",
          "type": "address[]"
        }
      ],
      "payable": false,
      "stateMutability": "view",
      "type": "function"
    },
    {
      "constant": true,
      "inputs": [
        {
          "internalType": "address",
          "name": "_address",
          "type": "address"
        }
      ],
      "name": "getInstructor",
      "outputs": [
        {
          "internalType": "uint256",
          "name": "",
          "type": "uint256"
        },
        {
          "internalType": "string",
          "name": "",
          "type": "string"
        },
        {
          "internalType": "string",
          "name": "",
          "type": "string"
        }
      ],
      "payable": false,
      "stateMutability": "view",
      "type": "function"
    },
    {
      "constant": true,
      "inputs": [],
      "name": "countInstructors",
      "outputs": [
        {
          "internalType": "uint256",
          "name": "",
          "type": "uint256"
        }
      ],
      "payable": false,
      "stateMutability": "view",
      "type": "function"
    }
  ],
  "bytecode": "0x608060405234801561001057600080fd5b50610912806100206000396000f3fe608060405234801561001057600080fd5b50600436106100575760003560e01c80630429e3721461005c57806346428adc1461018c5780635eff7dae146103085780638eb5234c14610367578063ca8ab933146103d5575b600080fd5b61009e6004803603602081101561007257600080fd5b81019080803573ffffffffffffffffffffffffffffffffffffffff1690602001909291905050506103f3565b604051808481526020018060200180602001838103835285818151815260200191508051906020019080838360005b838110156100e85780820151818401526020810190506100cd565b50505050905090810190601f1680156101155780820380516001836020036101000a031916815260200191505b50838103825284818151815260200191508051906020019080838360005b8381101561014e578082015181840152602081019050610133565b50505050905090810190601f16801561017b5780820380516001836020036101000a031916815260200191505b509550505050505060405180910390f35b610306600480360360808110156101a257600080fd5b81019080803573ffffffffffffffffffffffffffffffffffffffff16906020019092919080359060200190929190803590602001906401000000008111156101e957600080fd5b8201836020820111156101fb57600080fd5b8035906020019184600183028401116401000000008311171561021d57600080fd5b91908080601f016020809104026020016040519081016040528093929190818152602001838380828437600081840152601f19601f8201169050808301925050505050505091929192908035906020019064010000000081111561028057600080fd5b82018360208201111561029257600080fd5b803590602001918460018302840111640100000000831117156102b457600080fd5b91908080601f016020809104026020016040519081016040528093929190818152602001838380828437600081840152601f19601f820116905080830192505050505050509192919290505050610601565b005b610310610761565b6040518080602001828103825283818151815260200191508051906020019060200280838360005b83811015610353578082015181840152602081019050610338565b505050509050019250505060405180910390f35b6103936004803603602081101561037d57600080fd5b81019080803590602001909291905050506107ef565b604051808273ffffffffffffffffffffffffffffffffffffffff1673ffffffffffffffffffffffffffffffffffffffff16815260200191505060405180910390f35b6103dd61082b565b6040518082815260200191505060405180910390f35b60006060806000808573ffffffffffffffffffffffffffffffffffffffff1673ffffffffffffffffffffffffffffffffffffffff168152602001908152602001600020600001546000808673ffffffffffffffffffffffffffffffffffffffff1673ffffffffffffffffffffffffffffffffffffffff1681526020019081526020016000206001016000808773ffffffffffffffffffffffffffffffffffffffff1673ffffffffffffffffffffffffffffffffffffffff168152602001908152602001600020600201818054600181600116156101000203166002900480601f0160208091040260200160405190810160405280929190818152602001828054600181600116156101000203166002900480156105515780601f1061052657610100808354040283529160200191610551565b820191906000526020600020905b81548152906001019060200180831161053457829003601f168201915b50505050509150808054600181600116156101000203166002900480601f0160208091040260200160405190810160405280929190818152602001828054600181600116156101000203166002900480156105ed5780601f106105c2576101008083540402835291602001916105ed565b820191906000526020600020905b8154815290600101906020018083116105d057829003601f168201915b505050505090509250925092509193909250565b826000808673ffffffffffffffffffffffffffffffffffffffff1673ffffffffffffffffffffffffffffffffffffffff16815260200190815260200160002060000181905550816000808673ffffffffffffffffffffffffffffffffffffffff1673ffffffffffffffffffffffffffffffffffffffff168152602001908152602001600020600101908051906020019061069c929190610838565b50806000808673ffffffffffffffffffffffffffffffffffffffff1673ffffffffffffffffffffffffffffffffffffffff16815260200190815260200160002060020190805190602001906106f2929190610838565b506001808590806001815401808255809150509060018203906000526020600020016000909192909190916101000a81548173ffffffffffffffffffffffffffffffffffffffff021916908373ffffffffffffffffffffffffffffffffffffffff160217905550505050505050565b606060018054806020026020016040519081016040528092919081815260200182805480156107e557602002820191906000526020600020905b8160009054906101000a900473ffffffffffffffffffffffffffffffffffffffff1673ffffffffffffffffffffffffffffffffffffffff168152602001906001019080831161079b575b5050505050905090565b600181815481106107fc57fe5b906000526020600020016000915054906101000a900473ffffffffffffffffffffffffffffffffffffffff1681565b6000600180549050905090565b828054600181600116156101000203166002900490600052602060002090601f016020900481019282601f1061087957805160ff19168380011785556108a7565b828001600101855582156108a7579182015b828111156108a657825182559160200191906001019061088b565b5b5090506108b491906108b8565b5090565b6108da91905b808211156108d65760008160009055506001016108be565b5090565b9056fea265627a7a723158204146feeac80258f31c9efe76ff8fa68d37baf3d0c1a3947f65d24db72669a77f64736f6c63430005100032",
  "source": "pragma solidity ^0.5.0;\n\ncontract Courses {\n\n  struct Instructor {\n\n    uint age;\n    string fName;\n    string lName;\n  }\n\n  mapping (address => Instructor) instructors;\n  address[] public instructorAccts;\n    constructor() public{\n    }\n\n\n  function setInstructor(address _address, uint _age, string memory _fName, string memory _lName) public {\n    //var instructor = instructors[_address];\n\n    instructors[_address].age = _age;\n    instructors[_address].fName = _fName;\n    instructors[_address].lName = _lName;    \n\n    instructorAccts.push(_address) -1;\n  }\n\n  function getInstructors() view public returns(address[] memory) {\n    return instructorAccts;\n  }\n\n  function getInstructor(address _address) view public returns (uint, string memory, string memory) {\n    return (instructors[_address].age, instructors[_address].fName, instructors[_address].lName);\n  }\n  \n  function countInstructors() view public returns (uint) {\n    return instructorAccts.length;\n  }\n}",
  "sourcePath": "/Users/abdul/Desktop/Courses/contracts/Courses.sol",
  "compiler": {
    "name": "solc",
    "version": "0.5.16+commit.9c3226ce.Emscripten.clang"
  },
  "schemaVersion": "3.0.23",
  "updatedAt": "2020-04-15T01:04:26.074Z",
  "networkType": "ethereum",
  "devdoc": {
    "methods": {}
  },
  "userdoc": {
    "methods": {}
  }
}